:020000040800F2
:10000000B01800204D0100087B140008FB13000805
:1000100079140008DD0100082D220008000000000E
:10002000000000000000000000000000711900083E
:100030002502000800000000630100081D1A0008E6
:1000400067010008670100086701000867010008F0
:1000500067010008670100086701000867010008E0
:10006000670100086701000867010008E101000856
:10007000F501000867010008670100086701000832
:1000800067010008670100086701000867010008B0
:1000900067010008670100086701000867010008A0
:1000A0006701000867010008670100086701000890
:1000B0006701000867010008670100086701000880
:1000C0006701000867010008670100086701000870
:1000D00067010008ED1E0008E51F00086701000821
:1000E0006701000867010008670100086701000850
:1000F0006701000867010008670100086701000840
:10010000670100086701000867010008670100082F
:10011000670100086701000867010008670100081F
:10012000670100086701000867010008670100080F
:10013000DFF80CD000F040F800480047192500080F
:10014000B018002080F308887047000006488047F8
:1001500006480047FEE7FEE7FEE7FEE7FEE7FEE7AC
:10016000FEE7FEE7FEE7FEE7991A00083101000806
:1001700040EA01039B0703D009E008C9121F08C029
:10018000042AFAD203E011F8013B00F8013B521EA9
:10019000F9D27047D2B201E000F8012B491EFBD220
:1001A00070470022F6E710B513460A460446194682
:1001B000FFF7F0FF204610BD064C074D06E0E06853
:1001C00040F0010394E8070098471034AC42F6D39E
:1001D000FFF7B2FF2026000840260008FEE70000D7
:1001E0000348016841F001010160022000F00EB8EF
:1001F0001C00002010B5202000F008F8024801681B
:1002000041F08001016010BD24000020C10002D532
:100210000249086070470249486070470404024080
:10022000000002407047000001B5064800990160D7
:100230004FF0E0210A6942F001020A6101680029D9
:10024000FCD108BD4C00002031B502F0C5F8A0205B
:1002500002F086F802F0F6F870B99DF8000002F09E
:100260007FF802F0EFF838B902F0B6F8A12002F0FA
:1002700077F802F0E7F818B102F0CEF8002038BDA8
:1002800002F03CF8034C207002F01CF802F0C4F8B5
:10029000207838BD500000202DE9F0410120FFF703
:1002A000D3FFFE4D28600120FFF7CEFF28602868AD
:1002B000000228600220FFF7C7FF29680844286071
:1002C0002868000228600320FFF7BEFF2968084461
:1002D00028602868000228600420FFF7B5FF29681D
:1002E000084428600520FFF7AFFF686068680002D7
:1002F00068600620FFF7A8FF6968084468606868BE
:10030000000268600720FFF79FFF69680844686083
:100310006868000268600820FFF796FF6968084473
:1003200068600920FFF790FFE860E8680002E86075
:100330000A20FFF789FFE9680844E860E8680002DE
:10034000E8600B20FFF780FFE9680844E860E86890
:100350000002E8600C20FFF777FFE9680844E860D6
:100360000D20FFF771FF28612869000228610E2027
:10037000FFF76AFF2969084428612869000228619B
:100380000F20FFF761FF29690844286128690002EE
:1003900028611020FFF758FF2969084428611120BF
:1003A000FFF752FFBE4C2060206800022060122040
:1003B000FFF74AFF2168084420602068000220609F
:1003C0001320FFF741FF21680844206020680002E5
:1003D00020601420FFF738FF2168084420601520B2
:1003E000FFF732FF60606068000260601620FFF770
:1003F0002BFF61680844606060680002606017203D
:10040000FFF722FF61680844606060680002606076
:100410001820FFF719FF6168084460601920FFF792
:1004200013FFE060E0680002E0601A20FFF70CFFB5
:10043000E1680844E060E0680002E0601B20FFF72C
:1004400003FFE1680844E060E0680002E0601C200F
:10045000FFF7FAFEE1680844E0601D20FFF7F4FEB4
:1004600020612069000220611E20FFF7EDFE216956
:10047000084420612069000220611F20FFF7E4FE8C
:100480002169084420612069000220612020FFF7D3
:10049000DBFE2169084420612120FFF7D5FE814E53
:1004A00030702220FFF7D0FEA861A8690002A86181
:1004B0002320FFF7C9FEA9690844A861A8690002C2
:1004C000A8612420FFF7C0FEA9690844A861A869B3
:1004D0000002A8612520FFF7B7FEA9690844A861BA
:1004E0002620FFF7B1FEE861E8690002E8612720F5
:1004F000FFF7AAFEE9690844E861E8690002E861DB
:100500002820FFF7A1FEE9690844E861E8690002D4
:10051000E8612920FFF798FEE9690844E8612A208C
:10052000FFF792FE6862686A000268622B20FFF79C
:100530008BFE696A08446862686A000268622C205F
:10054000FFF782FE696A08446862686A00026862AE
:100550002D20FFF779FE696A084468622E20FFF7B4
:1005600073FEA862A86A0002A8622F20FFF76CFE43
:10057000A96A0844A862A86A0002A8623020FFF7AE
:1005800063FEA96A0844A862A86A0002A862312032
:10059000FFF75AFEA96A0844A8623220FFF754FE0A
:1005A000A061A0690002A0613320FFF74DFEA169A0
:1005B0000844A061A0690002A0613420FFF744FE56
:1005C000A1690844A061A0690002A0613520FFF77D
:1005D0003BFEA1690844A0613620FFF735FEE061CB
:1005E000E0690002E0613720FFF72EFEE169084470
:1005F000E061E0690002E0613820FFF725FEE16973
:100600000844E061E0690002E0613920FFF71CFE68
:10061000E1690844E0613A20FFF716FE6062606A13
:10062000000260623B20FFF70FFE616A08446062CF
:10063000606A000260623C20FFF706FE616A0844BF
:100640006062606A000260623D20FFF7FDFD616A42
:10065000084460623E20FFF7F7FDA062A06A000236
:10066000A0623F20FFF7F0FDA16A0844A062A06AE3
:100670000002A0624020FFF7E7FDA16A0844A062E3
:10068000A06A0002A0624120FFF7DEFDA16A0844D3
:10069000A0624220FFF7D8FD707005E0CC09002071
:1006A00064090020340A00204320FFF7CDFDB0701C
:1006B0004420FFF7C9FDF0704520FFF7C5FDA86095
:1006C000A8680002A8604620FFF7BEFDA96808449C
:1006D000A860A8680002A8604720FFF7B5FDA968D8
:1006E0000844A860A8680002A8604820FFF7ACFD95
:1006F000A9680844A8604920FFF7A6FD68616869F9
:10070000000268614A20FFF79FFD6969084468613B
:100710006869000268614B20FFF796FD696908442B
:1007200068616869000268614C20FFF78DFD6969A6
:10073000084468614D20FFF787FDA060A0680002B3
:10074000A0604E20FFF780FDA1680844A060A0686B
:100750000002A0604F20FFF777FDA1680844A06069
:10076000A0680002A0605020FFF76EFDA168084459
:10077000A0605120FFF768FD606160690002606160
:100780005220FFF761FD6169084460616069000201
:1007900060615320FFF758FD61690844606160693A
:1007A000000260615420FFF74FFD616908446061F9
:1007B0005520FFF749FD2862286A0002286256206A
:1007C000FFF742FD296A08442862286A000228626D
:1007D0005720FFF739FD296A08442862286A000279
:1007E00028625820FFF730FD296A08442862592002
:1007F000FFF72AFDE862E86A0002E8625A20FFF784
:1008000023FDE96A0844E862E86A0002E8625B20C6
:10081000FFF71AFDE96A0844E862E86A0002E86244
:100820005C20FFF711FDE96A0844E8625D20FFF7EC
:100830000BFD2062206A000220625E20FFF704FDAB
:10084000216A08442062206A000220625F20FFF7CC
:10085000FBFC216A08442062206A000220626020BA
:10086000FFF7F2FC216A084420626120FFF7ECFCEC
:10087000E062E06A0002E0626220FFF7E5FCE16A04
:100880000844E062E06A0002E0626320FFF7DCFCFB
:10089000E16A0844E062E06A0002E0626420FFF777
:1008A000D3FCE16A0844E0626520FFF7CDFC3071BB
:1008B0006620FFF7C9FC70717320FFF7C5FCFE4F7F
:1008C0003864386C000238647420FFF7BDFC396C62
:1008D00008443864386C000238647520FFF7B4FCB3
:1008E000396C08443864386C000238647620FFF7AD
:1008F000ABFC396C084438646720FFF7A5FC206323
:10090000206B000220636820FFF79EFC216B0844E7
:100910002063206B000220636920FFF795FC216BA8
:1009200008442063206B000220636A20FFF78CFCE0
:10093000216B084420636B20FFF786FC6063606BCB
:10094000000260636C20FFF77FFC616B084460630A
:10095000606B000260636D20FFF776FC616B0844FA
:100960006063606B000260636E20FFF76DFC616B7B
:10097000084460636F20FFF767FCA063A06B000270
:10098000A0637020FFF760FCA16B0844A063A06B1C
:100990000002A0637120FFF757FCA16B0844A0631D
:1009A000A06B0002A0637220FFF74EFCA16B08440D
:1009B000A0637720FFF748FCE063E06B0002E06390
:1009C0007820FFF741FCE16B0844E063E06B000234
:1009D000E0637920FFF738FCE16B0844E063E06BEB
:1009E0000002E0637A20FFF72FFCE16B0844E0632C
:1009F0007B20FFF729FC2064206C000220647C200F
:100A0000FFF722FC216C08442064206C0002206463
:100A10007D20FFF719FC216C08442064206C000243
:100A200020647E20FFF710FC216C084420647F20A6
:100A3000FFF70AFC6064606C000260648020FFF7CE
:100A400003FC616C08446064606C00026064812097
:100A5000FFF7FAFB616C08446064606C000260643C
:100A60008220FFF7F1FB616C084460648320FFF78C
:100A7000EBFBA064A06C0002A0648420FFF7E4FB01
:100A8000A16C0844A064A06C0002A0648520FFF75C
:100A9000DBFBA16C0844A064A06C0002A06486206B
:100AA000FFF7D2FBA16C0844A0648720FFF7CCFBC2
:100AB000E064E06C0002E0648820FFF7C5FBE16CB5
:100AC0000844E064E06C0002E0648920FFF7BCFBAE
:100AD000E16C0844E064E06C0002E0648A20FFF707
:100AE000B3FBE16C0844E0648B20FFF7ADFB2863A7
:100AF000286B000228638C20FFF7A6FB296B0844B3
:100B00002863286B000228638D20FFF79DFB296B6B
:100B100008442863286B000228638E20FFF794FBAB
:100B2000296B084428638F20FFF78EFB6863686B8E
:100B3000000268639020FFF787FB696B08446863D5
:100B4000686B000268639120FFF77EFB696B0844C5
:100B50006863686B000268639220FFF775FB696B3E
:100B6000084468639320FFF76FFBA863A86B00023B
:100B7000A8639420FFF768FBA96B0844A863A86BDF
:100B80000002A8639520FFF75FFBA96B0844A863E8
:100B9000A86B0002A8639620FFF756FBA96B0844D8
:100BA000A8639720FFF750FBE863E86B0002E86357
:100BB0009820FFF749FBE96B0844E863E86B000203
:100BC000E8639920FFF740FBE96B0844E863E86BB2
:100BD0000002E8639A20FFF737FBE96B0844E863FB
:100BE0009B20FFF731FB2864286C000228649C20BE
:100BF000FFF72AFB296C08442864286C000228644B
:100C00009D20FFF721FB296C08442864286C000212
:100C100028649E20FFF718FB296C084428649F2055
:100C2000FFF712FB6864686C00026864A020FFF79D
:100C30000BFB696C08446864686C00026864A1205E
:100C4000FFF702FB696C08446864686C0002686422
:100C5000A220FFF7F9FA696C08446864A320FFF743
:100C6000F3FAA864A86C0002A864A420FFF7ECFAC9
:100C7000A96C0844A864A86C0002A864A520FFF72A
:100C8000E3FAA96C0844A864A86C0002A864A62032
:100C9000FFF7DAFAA96C0844A864A720FFF7D4FA92
:100CA000E864E86C0002E864A820FFF7CDFAE96C7C
:100CB0000844E864E86C01E0440A00200002E864AB
:100CC000A920FFF7C1FAE96C0844E864E86C000267
:100CD000E864AA20FFF7B8FAE96C0844E864AF209A
:100CE000FFF7B2FA2065206D00022065B020FFF703
:100CF000ABFA216D08442065206D00022065B1200B
:100D0000FFF7A2FA216D08442065206D00022065DE
:100D1000B220FFF799FA216D08442065B320FFF750
:100D200093FAE065E06D0002E065B420FFF78CFA0D
:100D3000E16D0844E065E06D0002E065B520FFF775
:100D400083FAE16D0844E065E06D0002E065B620DD
:100D5000FFF77AFAE16D0844E065B720FFF774FA0F
:100D60006065606D00026065B820FFF76DFA616D27
:100D700008446065606D00026065B920FFF764FAA1
:100D8000616D08446065606D00026065BA20FFF720
:100D90005BFA616D08446065BB20FFF755FA206679
:100DA000206E00022066BC20FFF74EFA216E084438
:100DB0002066206E00022066BD20FFF745FA216EF6
:100DC00008442066206E00022066BE20FFF73CFA31
:100DD000216E08442066BF20FFF736FAA065A06D9B
:100DE0000002A065C020FFF72FFAA16D0844A0659E
:100DF000A06D0002A065C120FFF726FAA16D08448E
:100E0000A065A06D0002A065C220FFF71DFAA16DCC
:100E10000844A065C320FFF717FA6066606E000201
:100E20006066C420FFF710FA616E08446066606E69
:100E300000026066C520FFF707FA616E084460662D
:100E4000606E00026066C620FFF7FEF9616E08441E
:100E50006066C720FFF7F8F92865286D000228654D
:100E6000C820FFF7F1F9296D08442865286D0002B4
:100E70002865C920FFF7E8F9296D08442865286D21
:100E800000022865CA20FFF7DFF9296D08442865AC
:100E9000CB20FFF7D9F9E865E86D0002E865CC20C2
:100EA000FFF7D2F9E96D0844E865E86D0002E865EE
:100EB000CD20FFF7C9F9E96D0844E865E86D000247
:100EC000E865CE20FFF7C0F9E96D0844E865CF205A
:100ED000FFF7BAF96865686D00026865D020FFF712
:100EE000B3F9696D08446865686D00026865D120D2
:100EF000FFF7AAF9696D08446865686D00026865C6
:100F0000D220FFF7A1F9696D08446865D320FFF787
:100F10009BF92866286E00022866D420FFF794F912
:100F2000296E08442866286E00022866D520FFF73F
:100F30008BF9296E08442866286E00022866D620A0
:100F4000FFF782F9296E08442866D720FFF77CF95D
:100F5000A865A86D0002A865D820FFF775F9A96DEE
:100F60000844A865A86D0002A865D920FFF76CF9B0
:100F7000A96D0844A865A86D0002A865DA20FFF7EE
:100F800063F9A96D0844A865DB20FFF75DF9686681
:100F9000686E00026866DC20FFF756F9696E084447
:100FA0006866686E00026866DD20FFF74DF9696EBD
:100FB00008446866686E00026866DE20FFF744F940
:100FC000696E08446866AB20FFF73EF9B071AC204B
:100FD000FFF73AF9F071AD20FFF736F93072AE2025
:100FE000FFF732F97072DF20FFF72EF9B072E020C0
:100FF000FFF72AF9F072E120FFF726F93073BDE818
:10100000F08103B583B0BDF80C00ADF8040001F029
:1010100003FA00200AE001F0DFF9A02001F0A0F9B6
:1010200001F010FA40B1BDF80000401CADF800001E
:10103000BDF800006428EED3BDF80000B0F57A7F5B
:1010400010D0BDF80400C0B201F08AF901F0FAF93D
:1010500040B99DF8100001F083F901F0F3F908B9E7
:1010600001F0DAF905B05DF804EB01F0D5B9000044
:1010700070B505464FF43026304600F06FF804286E
:1010800011D1094C206940F002002061656120699E
:1010900040F040002061304600F060F8216941F6E0
:1010A000FD721140216170BD0020024008490420FA
:1010B000CA68D20701D001207047CA68520701D51B
:1010C00002207047C968C906FBD50320704700009D
:1010D000002002400248016941F08001016170472F
:1010E0000020024004490A6822F010020A600A68DF
:1010F00002430A607047000000200240F0B5064637
:101100004FF400570D46384600F028F804280CD15B
:10111000064C206940F0010020613580384600F01F
:101120001DF82169BA1E11402161F0BD0020024066
:10113000034A116801F03801014311607047000053
:101140000020024003480249416003494160704762
:101150002301674500200240AB89EFCD00B503466F
:10116000FFF7A4FF03E000BFFFF7A0FF5B1E01280D
:1011700003D0002B00D1052000BD002BF4D1FAE7ED
:1011800010B50121084600F0D9F90021BDE8104052
:10119000012000F0D3B90000F8B5214E304600F030
:1011A00049F8204F384600F045F81F4800F042F853
:1011B000FFF7E6FF01211C2000F0B4F901210846E9
:1011C00000F0B0F90121194800F0E0F801211848B9
:1011D00000F0DCF84FF40760ADF8000010248DF843
:1011E000034003258DF802506946304600F07CF834
:1011F0008020ADF8000048208DF803006946304695
:1012000000F072F840F20310ADF800008DF80340D2
:101210008DF802506946384600F066F8F8BD0000C7
:1012200000080140000C01400010014000043000A3
:1012300000023000254910B5884206D10121042062
:1012400000F07CF9002104203BE02149884206D1CE
:101250000121082000F072F90021082031E01D4929
:10126000884206D10121102000F068F900211020E9
:1012700027E01949884206D10121202000F05EF9BB
:10128000002120201DE01549884206D1012140207F
:1012900000F054F90021402013E01149884206D1A2
:1012A0000121802000F04AF90021802009E00D4949
:1012B00088420AD184150121204600F03FF900211F
:1012C0002046BDE8104000F039B910BD00080140CB
:1012D000000C0140001001400014014000180140C2
:1012E000001C014000200140F0B5CA78002502F042
:1012F0000F03D20601D58A7813430A784FF00F0EF8
:1013000012F0FF0F4FF001021CD004680F8802FAA0
:1013100005F63740B74211D14FEA850C0EFA0CF7AB
:1013200024EA070703FA0CF43C43CF78282F02D0B5
:10133000482F02D002E0466100E006616D1C082DD6
:10134000E4D304600C88FF2C1ED944685FF00006CB
:1013500006F1080702FA07F50F882F40AF420FD1B8
:101360004FEA860C0EFA0CF7BC4303FA0CF73C4329
:10137000CF78282F00D14561CF78482F00D1056163
:10138000761C082EE4D34460F0BD0000F0B5144C88
:10139000002801DAE36900E06368420D120185B2BA
:1013A000C0F301579540C0F30346032F05D0C20296
:1013B0000AD50322B240934307E023F070626368CA
:1013C00023F07063636002E0AB4343F0706201B1ED
:1013D0002A43002801DAE261F0BD6260F0BD00003E
:1013E000000001400246002092680A4200D001201D
:1013F00070474161704701617047FEE713B582B0E5
:101400004FF6FF71ADF800109DF80C1011B90121D5
:101410008DF80C1000244AF2010300BF9DF80C1057
:101420004A1E8DF80C2023D30178BDF800205140CE
:10143000ADF800108DF8044014E000BFBDF80010B6
:10144000C907BDF800104FEA510104D0ADF80010F3
:10145000BDF800105940ADF800109DF80410491C6B
:101460008DF804109DF804100829E7D3401CD5E737
:10147000BDF8000004B010BDFEE7704770B50F2343
:10148000C47801780122F4B1144C2468457804F43E
:10149000E064C4F5E064240AC4F10406E3408478FF
:1014A000B5401C402C4301F1E021230181F80034B8
:1014B000007800F01F018A404009800000F1E02020
:1014C000C0F8002170BD01F01F0082404809800073
:1014D00000F1E020C0F8802170BD00000CED00E0BC
:1014E0000249084302490860704700000000FA05FD
:1014F0000CED00E0044A0029516901D0014300E0ED
:10150000814351617047000000100240044A0029E5
:10151000D16901D0014300E08143D16170470000EF
:1015200000100240044A0029916901D0014300E003
:10153000814391617047000000100240044A002975
:10154000D16801D0014300E08143D16070470000C1
:101550000010024010B500F033F84FF480342046FC
:1015600000F0C0F800F006F9144908700878012866
:1015700022D1002000F0ACF8002000F0D7F8A01134
:1015800000F0CAF80220FFF7D3FD1020FFF7AAFDF4
:101590004FF4E011204600F0D9F8012000F0D0F817
:1015A000392000F075F80028FAD0022000F0D8F8B1
:1015B00000F086F80828FBD110BD00005100002083
:1015C0000C48016841F00101016041680A4A11407C
:1015D00041600168094A11400160016821F48021DD
:1015E0000160416821F4FE0141604FF41F018160F8
:1015F00070470000001002400000FFF8FFFFF6FEF9
:1016000030B51F494A6812F00C031E4A03D0042B60
:1016100001D0082B21D002604A680F231A4C03EA3C
:101620001212A35C0268DA4042604B68072505EAA3
:101630001323E35C22FA03F383604B6805EAD323A8
:10164000E35CDA40C2604968032303EA9131231F57
:10165000595CB2FBF1F1016130BD4A684B6802F49C
:1016600070124FF0020413F4803F04EB924202D058
:101670004B689B0301D5054B00E0024B5A43CAE778
:101680000010024000127A000400002000093D0012
:101690000246002053090949012B0BD0022B0BD025
:1016A000D1F8241002F01F02012393400B4200D016
:1016B000012070470968F5E7096AF3E70010024066
:1016C0000248406800F00C00704700000010024023
:1016D000034A516821F0F001014351607047000056
:1016E000001002400B490A6822F480320A600A683E
:1016F00022F480220A60B0F5803F07D0B0F5802F39
:1017000003D1086840F4A02008607047086840F4DE
:101710008030F9E700100240034A516821F4E0618B
:1017200001435160704700000010024003494A68BD
:1017300022F4605242EAC000486070470010024044
:10174000014908667047000000004242034A53689E
:10175000084323F47C131843506070470010024084
:10176000034A516821F003010143516070470000B2
:101770000010024018B500204FF4A0640090312002
:10178000FFF786FF0099491C0091A14201D0002873
:10179000F5D03120FFF77CFF002800D0012018BDD4
:1017A00010B5EE20FEF750FD0149087010BD000095
:1017B0001400002038B5124C0121217051206070B6
:1017C0000020A070E07020716071A071E1710821AB
:1017D0000C48FFF713FEADF80000BDF80000000A4A
:1017E0002072BDF80000607207490A20087007489F
:1017F000016841F008010160BDE8384000F07EB9A1
:10180000E80B002058010020550000201C0000209B
:1018100038B5124C01212170502060700020A0705A
:10182000E07020716071A071E17108212046FFF71E
:10183000E5FDADF80000BDF80000000A2072BDF81B
:101840000000607206490A2008700648016841F0ED
:1018500008010160BDE8384000F050B9E80B0020F5
:10186000550000201C00002010B5002306E000BF3A
:1018700030F8024B21F813405B1C9BB29342F7D324
:1018800010BD00002DE9F05FA0F1006415468A4606
:101890008346B4F5003F52D2FFF754FCA70AC4F3C5
:1018A0004806C6F50074A54200D82C46DFF894908F
:1018B0004FF0006000EB872080464FF40072214912
:1018C000FFF7D2FF00204FF6FF7106E0331839F81A
:1018D00013208A4203D1401C80B2A042F6D3A0421A
:1018E00025D24046FFF7C4FB0020494607E000BF71
:1018F0003AF810208319401C21F8132080B2A0422E
:10190000F6D3104940464FF4007200BF00F01CF8B7
:10191000A54210D0281B0AEB440AA344002685B236
:101920004FF400747F1CA542C2D82C46C0E7224663
:1019300051465846EAE7BDE8F05FFFF7CBBBBDE88C
:10194000F09F0000B00C00202DE9F04116460F4634
:101950000546002408E000BF37F814102846FFF7BA
:10196000CDFB641CA4B2AD1CB442F5D3BDE8F0813C
:10197000704700000CB500212648019100910268D3
:1019800042F4803202604FF4A063026802F4003235
:101990000092019A521C0192009A12B9019A9A423D
:1019A000F3D10268920333D5012100911A490A68E4
:1019B00042F010020A600A6822F003020A600A6814
:1019C00042F002020A60416841604168416041683A
:1019D00041F480614160416821F47C1141604168BB
:1019E00041F4E8114160016841F0807101600168D3
:1019F0008901FCD5416821F003014160416841F053
:101A0000020141604168C1F381010229FAD10CBD94
:101A100000910CBD001002400020024010B500F003
:101A200063F8094909480A68D30602D503785B1CA4
:101A300003700378FA2B06D90023037022F01000FC
:101A400008600348037010BD2400002056000020E9
:101A5000540000200E484FF47A710068B0FBF1F09A
:101A6000B0F1807F12D220F07F414FF0E020491E7C
:101A70004161084AF02182F8141D0021816107218B
:101A80000161016941F0010101617047FEE7000059
:101A9000340000200FE000E00F4810B5016841F06D
:101AA0000101016041680D4A1140416001680C4A22
:101AB00011400160016821F480210160416821F436
:101AC000FE0141604FF41F018160FFF753FF05499C
:101AD0004FF00060086010BD001002400000FFF8E9
:101AE000FFFFF6FE08ED00E003480168002902D080
:101AF0000168491E016070474C000020F8B50020C5
:101B00008DF800008DF800000F4C104E104D10E0C5
:101B10009DF80000315C204600F084FB80212046C7
:101B200000F0E7FA0028F9D09DF80000401C8DF87D
:101B300000009DF8000029788842E9D30548016833
:101B400021F008010160F8BD00440040E80B0020CE
:101B5000550000201C0000202DE9FF5FDA4C2078A2
:101B6000DA4DDFF86CB3DFF86C9300270126DFF85D
:101B70006883012802D0207800287CD1607803286F
:101B80007ED1E079A17900EB0120ADF804000621B7
:101B9000CD48FFF733FCBDF80410884203D0BDF8F0
:101BA000040000286CD1E078FF2869D2E0786179E0
:101BB0000844FF2864D22E7003206870607980008A
:101BC000A8708DF8007033E09DF80000800713D0F6
:101BD0009DF8000000F00300012816D09DF80000D9
:101BE00000F003000228E0789DF8001000EB91015E
:101BF00058F8210012D012E0E0789DF8001000EBB8
:101C0000910158F82100000E09E0E0789DF80010DD
:101C100000EB910158F82100000C00E0000A9DF84B
:101C200000102944C8709DF80000401C8DF8000089
:101C3000A8789DF800108842C6D8A878C01CC1B208
:101C4000A248FFF7DBFBADF80400BDF80400AA785A
:101C5000010A9E48C01C1154BDF80400AA789B4993
:101C6000091D5054A878401D8BF80000D9F80010C9
:101C700041F0080100E003E0C9F80010FFF73EFF63
:101C80002078012802D0207800287DD18DF80C70B2
:101C90006078062851D1E078FF284ED2607A217A08
:101CA00000EB0120ADF8000008218748FFF7A6FBF4
:101CB000BDF80010884202D0BDF80000E8BB607992
:101CC000217900EB01200090E079A17900EB01205F
:101CD000ADF80400E0788DF80800BDF80400009924
:101CE0009DF8082000EB0140009048F822008DF894
:101CF0000C700AE09DF80C00205C9DF80C106854F4
:101D00009DF80C00401C8DF80C009DF80C000A2872
:101D1000F0D30A218BF80010D9F8001041F0080127
:101D2000C9F80010FFF7EAFE6C48016841F00101B4
:101D30000160C8216448FEF734FA6078102823D186
:101D4000D8F834006649DFF89CA104280AD1D8F8F5
:101D5000AC00012806D1D8F83000012802D18AF859
:101D600000700E70D8F83400042817D1D8F8AC00F1
:101D7000022813D1D8F8300001280FD19AF800209A
:101D80005046012A05D000E09CE00A78012A03D0E1
:101D900004E007700E7001E00F700670A17904EB8B
:101DA0008101097AA27904EB8202D27901EB022146
:101DB000ADF80010A079072101EB8000C1B24248C4
:101DC000FFF71CFBBDF8001088427BD18DF808702E
:101DD00020462BE09DF8081000EB8101097A9DF860
:101DE000082000EB8202D27901EB022100919DF8DC
:101DF000081000EB8101897A9DF8082000EB82022F
:101E0000527A01EB0221ADF80410BDF80410009ADB
:101E100001EB02410091C2789DF808301A4448F85D
:101E200022109DF80810491C8DF8081081799DF842
:101E300008209142CED8D8F83C102B4C012902D072
:101E40002178491C21700178012922D12E7010219E
:101E500069708178A970C178E97001792971407938
:101E6000687106211948FFF7C9FAADF80000BDF8FE
:101E70000000000AA871BDF80000E87108218BF885
:101E80000010D9F8001041F00801C9F80010FFF760
:101E900035FE1248016841F001010160D8F83400B4
:101EA000042808D1D8F83000012804D1607810B98E
:101EB0008AF80060667004B0C821BDE8F05F02488F
:101EC000FEF76FB9BDE8FF9F200B0020E80B002054
:101ED000550000201C000020440A0020280000209B
:101EE00031000020300000205200002070B50D4865
:101EF0000D4D40F22554016841F01001016021466A
:101F0000284600F0FDF800280AD02146284600F0B7
:101F1000E0F80648D0F8B010002901D0D0F8B000A1
:101F200070BD00002400002000380140440A002059
:101F300030B587B001212848FFF7E8FA0424ADF84E
:101F4000104018208DF813000320244D8DF8120046
:101F500004A92846FFF7C8F90820ADF810008DF84D
:101F6000134004A92846FFF7BFF900244FF4E130DD
:101F70000090ADF808400C20194DADF80440ADF8C4
:101F80000A00ADF80640ADF80C406946284600F05E
:101F9000EFF84FF4E060FFF7A3FA26208DF8140065
:101FA0008DF8154002208DF8160001208DF81700DD
:101FB00005A8FFF763FA012240F22551284600F0F8
:101FC000BEF80121284600F08AF84021284600F09A
:101FD0007DF807B030BD0000040002000008014099
:101FE000004400402DE9F0412F4D304E40F2255481
:101FF0002868214640F010002860304600F080F844
:10200000002816D02146304600F063F8284C20788E
:1020100088B1207801280CD1304600F0FFF8C1B219
:10202000608840F20242904203D2224A1154401C7E
:102030006080BDE8F081304600F0F0F81F491E4B8B
:102040000A7898541F7800201D4E1E4A012F1ED179
:102050005B78062B1BD10B78082B18D908701168F8
:1020600041F0100111602B6823F010032B603070D9
:10207000C806DED521F010001060FFF76DFD124894
:10208000D0F8CC000028D4D001202070D1E70B7804
:102090005B1C0B700B78C82BCBD90870116821F032
:1020A000100111603070C4E724000020004400409B
:1020B0002C00002062010020200B00205400002092
:1020C000560000201C000020440A0020C943018063
:1020D00070470A0A01219140C943018070470029D5
:1020E000818902D041F4005101E021F40051818145
:1020F00070470246002012880A4200D00120704733
:1021000030B501F01F0201240025C1F3421304FA87
:1021100002F2012B0FD0022B0FD0838A4FEA11213C
:102120000088134204FA01F400EA040001D000B16F
:102130000125284630BD8389F0E7038AEEE710B514
:10214000C1F3421301F01F040121A140012B07D06C
:10215000022B07D01430002A026805D00A4304E09D
:102160000C30F8E71030F6E78A43026010BD00003B
:1021700030B50446008A85B00D464CF6FF71084024
:10218000E98801432182A1894EF6F3100140A88815
:102190002A8910436A890A431043A081A08A4FF616
:1021A000FF410840A9890143A1826846FFF728FA48
:1021B0001948844201D1039800E00298A1890904DA
:1021C00000EBC00101EB0010296801D5490000E0D7
:1021D0008900B0FBF1F06422B0FBF2F109010B09B8
:1021E0006FF018056B4300EB8300A3891D044FF0CB
:1021F000320306D503EBC000B0FBF2F000F007009D
:1022000005E003EB0010B0FBF2F000F00F00084314
:10221000208105B030BD0000003801408088C0F347
:1022200008007047C1F3080181807047FEE7000095
:1022300002480178EE20FEF7E4BE00001400002002
:1022400002E008C8121F08C1002AFAD1704770477F
:10225000002001E001C1121F002AFBD170470000DD
:10226000F8B501211020FFF745F94FF48040ADF893
:10227000000014240B4E8DF8034002258DF8025007
:1022800069463046FFF730F8A803ADF800008DF836
:1022900003408DF8025069463046FFF725F800F0FC
:1022A000BBF8F8BD0010014008B500208DF8000013
:1022B0009DF800000A2803D29DF80000401CF5E7B5
:1022C00008BD000070B50C4C4FF480412046FFF76C
:1022D00092F8FFF7E9FF4FF4004529462046FFF743
:1022E0008AF8FFF7E1FF29462046FFF782F8BDE8AC
:1022F0007040FFF7D9BF0000001001407CB50020FE
:102300008DF800008DF804004FF40044134D661062
:102310001DE040008DF8000021462846FFF76BF8CD
:10232000FFF7C2FF31462846FFF75CF820B19DF861
:102330000000401C8DF8000021462846FFF759F8A0
:10234000FFF7B2FF9DF80400401C8DF804009DF8D3
:10235000040008289DF80000DBD37CBD001001407C
:1023600071B581B000208DF800004FF48046194C03
:1023700075002AE09DF8040031460006204602D58B
:10238000FFF739F801E0FFF734F8FFF78DFF294632
:102390002046FFF730F8FFF787FF29462046FFF772
:1023A00028F89DF80000072803D131462046FFF7A2
:1023B00022F89DF8040040008DF80400FFF774FF38
:1023C0009DF80000401C8DF800009DF800000828D2
:1023D000D0D37CBD0010014070B50E4D4FF4804449
:1023E00021462846FFF707F8660031462846FFF7E2
:1023F00002F8FFF759FF21462846FEF7FAFFFFF7DC
:1024000053FF31462846FEF7F4FFBDE87040FFF762
:102410004BBF00000010014070B5094D4FF48044DF
:1024200021462846FEF7E5FF61002846FEF7E3FF58
:10243000FFF73AFF21462846BDE87040FEF7DBBFB4
:1024400000100140F8B5104C4FF480452946204655
:10245000FEF7D1FFFFF728FF6E0031462046FEF75A
:10246000CAFFFFF721FF29462046FEF7BBFF00B158
:1024700001208DF8000031462046FEF7BAFFFFF735
:1024800013FF9DF80000F8BD0010014010B5016871
:10249000074A1140B1F1005F09D14168054C216044
:1024A0000068FDF74FFE2068BDE81040004710BDF2
:1024B0000000FE2F480000202DE9F0470024904640
:1024C00007460D4626464FF40079DFF848A014E091
:1024D000687815F8021B4A4601EB00202AF8140020
:1024E000641CA4B2944206D100240A493846FFF77E
:1024F000C9F907F58067B61CB6B24645E8D3002C8B
:1025000006D022463846BDE8F0470249FFF7BAB97F
:10251000BDE8F08764050020002662B6FFF71AF8D0
:10252000FFF798FAFEF738FEFFF79AFEFDF7B4FEC4
:10253000FFF7FEFCFFF734F9DFF8C880D8F8D000C9
:10254000314C324D002728B9207800284ED0277012
:10255000FFF76EFEC8F8CC70A946E5602C4D2888C0
:102560000028FCD086424BD12A4909780129F6D1AE
:10257000801EC1B22848FEF741FF608026492A88A4
:10258000114411F8013C11F8021C03EB01218142B6
:1025900017D121492148921EFDF7EAFDA0882A881B
:1025A0001E491044801EA080921EE068FFF784FF41
:1025B0002988E0680844801EE060FFF729F90026BA
:1025C0002F80D8F8CC104046A2889142C7D1D0F8CD
:1025D000CC000028C3D06420FDF726FEA780FFF7BB
:1025E000E9F872B64846FFF751FFB8E76968284630
:1025F0000822B2EB116FADD172B6FFF747FFA9E722
:102600000646ACE7440A0020140000200000010840
:102610002E0000202C000020620100205800002025
:10262000402600080000002058000000402200085A
:102630009826000858000020581800005022000872
:102640000204060800000000010203040102030462
:10265000060708090000000000000000000000005C
:10266000000000000000000000000000000000006A
:102670000000000000A24A0400000000000000006A
:102680000102030406070809000000000000000022
:08269000000000000000000042
:0400000508000131BD
:00000001FF
